{
  "_format": "hh-sol-artifact-1",
  "contractName": "DroneComplianceSystem",
  "sourceName": "contracts/DroneComplianceSystem.sol",
  "abi": [
    {
      "anonymous": false,
      "inputs": [
        {
          "indexed": true,
          "internalType": "address",
          "name": "drone",
          "type": "address"
        },
        {
          "indexed": false,
          "internalType": "uint256",
          "name": "safetyScore",
          "type": "uint256"
        }
      ],
      "name": "ComplianceUpdated",
      "type": "event"
    },
    {
      "anonymous": false,
      "inputs": [
        {
          "indexed": true,
          "internalType": "address",
          "name": "drone",
          "type": "address"
        },
        {
          "indexed": false,
          "internalType": "string",
          "name": "violationType",
          "type": "string"
        }
      ],
      "name": "ViolationRecorded",
      "type": "event"
    },
    {
      "inputs": [
        {
          "internalType": "address",
          "name": "",
          "type": "address"
        }
      ],
      "name": "droneCompliance",
      "outputs": [
        {
          "internalType": "uint256",
          "name": "totalFlights",
          "type": "uint256"
        },
        {
          "internalType": "uint256",
          "name": "safetyScore",
          "type": "uint256"
        },
        {
          "internalType": "bool",
          "name": "hasViolations",
          "type": "bool"
        }
      ],
      "stateMutability": "view",
      "type": "function"
    },
    {
      "inputs": [
        {
          "internalType": "address",
          "name": "_drone",
          "type": "address"
        },
        {
          "internalType": "string",
          "name": "_violationType",
          "type": "string"
        }
      ],
      "name": "recordViolation",
      "outputs": [],
      "stateMutability": "nonpayable",
      "type": "function"
    },
    {
      "inputs": [
        {
          "internalType": "address",
          "name": "_drone",
          "type": "address"
        },
        {
          "internalType": "uint256",
          "name": "_score",
          "type": "uint256"
        }
      ],
      "name": "updateSafetyScore",
      "outputs": [],
      "stateMutability": "nonpayable",
      "type": "function"
    }
  ],
  "bytecode": "0x608060405234801561001057600080fd5b50610379806100206000396000f3fe608060405234801561001057600080fd5b50600436106100415760003560e01c80635fc11ad114610046578063cd3562c01461005b578063fee12d291461006e575b600080fd5b6100596100543660046101c0565b6100c1565b005b610059610069366004610282565b610123565b6100a061007c3660046102ac565b60006020819052908152604090208054600182015460029092015490919060ff1683565b60408051938452602084019290925215159082015260600160405180910390f35b6001600160a01b03821660008181526020819052604090819020600201805460ff19166001179055517fe506416a2fd05e60abc01e433f8473ba8e867f34929614e109c00160e85abbee906101179084906102ce565b60405180910390a25050565b6001600160a01b03821660009081526020819052604081206001810183905580549161014e8361031c565b9190505550816001600160a01b03167f8314cb7ac26bb65cf78222c798a5e4bdf6508aafd937ceb1860d74bb740f78fd8260405161011791815260200190565b80356001600160a01b03811681146101a557600080fd5b919050565b634e487b7160e01b600052604160045260246000fd5b600080604083850312156101d357600080fd5b6101dc8361018e565b9150602083013567ffffffffffffffff808211156101f957600080fd5b818501915085601f83011261020d57600080fd5b81358181111561021f5761021f6101aa565b604051601f8201601f19908116603f01168101908382118183101715610247576102476101aa565b8160405282815288602084870101111561026057600080fd5b8260208601602083013760006020848301015280955050505050509250929050565b6000806040838503121561029557600080fd5b61029e8361018e565b946020939093013593505050565b6000602082840312156102be57600080fd5b6102c78261018e565b9392505050565b600060208083528351808285015260005b818110156102fb578581018301518582016040015282016102df565b506000604082860101526040601f19601f8301168501019250505092915050565b60006001820161033c57634e487b7160e01b600052601160045260246000fd5b506001019056fea26469706673582212205b5cd51c54665b1e0b9359ba2fb6689257a9cf41f1d1d37deb75bc49a863394c64736f6c63430008140033",
  "linkReferences": {},
  "deployedLinkReferences": {}
}