{"contracts/DroneComplianceSystem.sol":{"DroneComplianceSystem":{"abi":[{"anonymous":false,"inputs":[{"indexed":true,"internalType":"address","name":"drone","type":"address"},{"indexed":false,"internalType":"uint256","name":"safetyScore","type":"uint256"}],"name":"ComplianceUpdated","type":"event"},{"anonymous":false,"inputs":[{"indexed":true,"internalType":"address","name":"drone","type":"address"},{"indexed":false,"internalType":"string","name":"violationType","type":"string"}],"name":"ViolationRecorded","type":"event"},{"inputs":[{"internalType":"address","name":"","type":"address"}],"name":"droneCompliance","outputs":[{"internalType":"uint256","name":"totalFlights","type":"uint256"},{"internalType":"uint256","name":"safetyScore","type":"uint256"},{"internalType":"bool","name":"hasViolations","type":"bool"}],"stateMutability":"view","type":"function"},{"inputs":[{"internalType":"address","name":"_drone","type":"address"},{"internalType":"string","name":"_violationType","type":"string"}],"name":"recordViolation","outputs":[],"stateMutability":"nonpayable","type":"function"},{"inputs":[{"internalType":"address","name":"_drone","type":"address"},{"internalType":"uint256","name":"_score","type":"uint256"}],"name":"updateSafetyScore","outputs":[],"stateMutability":"nonpayable","type":"function"}],"evm":{"bytecode":{"linkReferences":{},"object":"608060405234801561001057600080fd5b50610379806100206000396000f3fe608060405234801561001057600080fd5b50600436106100415760003560e01c80635fc11ad114610046578063cd3562c01461005b578063fee12d291461006e575b600080fd5b6100596100543660046101c0565b6100c1565b005b610059610069366004610282565b610123565b6100a061007c3660046102ac565b60006020819052908152604090208054600182015460029092015490919060ff1683565b60408051938452602084019290925215159082015260600160405180910390f35b6001600160a01b03821660008181526020819052604090819020600201805460ff19166001179055517fe506416a2fd05e60abc01e433f8473ba8e867f34929614e109c00160e85abbee906101179084906102ce565b60405180910390a25050565b6001600160a01b03821660009081526020819052604081206001810183905580549161014e8361031c565b9190505550816001600160a01b03167f8314cb7ac26bb65cf78222c798a5e4bdf6508aafd937ceb1860d74bb740f78fd8260405161011791815260200190565b80356001600160a01b03811681146101a557600080fd5b919050565b634e487b7160e01b600052604160045260246000fd5b600080604083850312156101d357600080fd5b6101dc8361018e565b9150602083013567ffffffffffffffff808211156101f957600080fd5b818501915085601f83011261020d57600080fd5b81358181111561021f5761021f6101aa565b604051601f8201601f19908116603f01168101908382118183101715610247576102476101aa565b8160405282815288602084870101111561026057600080fd5b8260208601602083013760006020848301015280955050505050509250929050565b6000806040838503121561029557600080fd5b61029e8361018e565b946020939093013593505050565b6000602082840312156102be57600080fd5b6102c78261018e565b9392505050565b600060208083528351808285015260005b818110156102fb578581018301518582016040015282016102df565b506000604082860101526040601f19601f8301168501019250505092915050565b60006001820161033c57634e487b7160e01b600052601160045260246000fd5b506001019056fea26469706673582212205b5cd51c54665b1e0b9359ba2fb6689257a9cf41f1d1d37deb75bc49a863394c64736f6c63430008140033","opcodes":"PUSH1 0x80 PUSH1 0x40 MSTORE CALLVALUE DUP1 ISZERO PUSH2 0x10 JUMPI PUSH1 0x0 DUP1 REVERT JUMPDEST POP PUSH2 0x379 DUP1 PUSH2 0x20 PUSH1 0x0 CODECOPY PUSH1 0x0 RETURN INVALID PUSH1 0x80 PUSH1 0x40 MSTORE CALLVALUE DUP1 ISZERO PUSH2 0x10 JUMPI PUSH1 0x0 DUP1 REVERT JUMPDEST POP PUSH1 0x4 CALLDATASIZE LT PUSH2 0x41 JUMPI PUSH1 0x0 CALLDATALOAD PUSH1 0xE0 SHR DUP1 PUSH4 0x5FC11AD1 EQ PUSH2 0x46 JUMPI DUP1 PUSH4 0xCD3562C0 EQ PUSH2 0x5B JUMPI DUP1 PUSH4 0xFEE12D29 EQ PUSH2 0x6E JUMPI JUMPDEST PUSH1 0x0 DUP1 REVERT JUMPDEST PUSH2 0x59 PUSH2 0x54 CALLDATASIZE PUSH1 0x4 PUSH2 0x1C0 JUMP JUMPDEST PUSH2 0xC1 JUMP JUMPDEST STOP JUMPDEST PUSH2 0x59 PUSH2 0x69 CALLDATASIZE PUSH1 0x4 PUSH2 0x282 JUMP JUMPDEST PUSH2 0x123 JUMP JUMPDEST PUSH2 0xA0 PUSH2 0x7C CALLDATASIZE PUSH1 0x4 PUSH2 0x2AC JUMP JUMPDEST PUSH1 0x0 PUSH1 0x20 DUP2 SWAP1 MSTORE SWAP1 DUP2 MSTORE PUSH1 0x40 SWAP1 KECCAK256 DUP1 SLOAD PUSH1 0x1 DUP3 ADD SLOAD PUSH1 0x2 SWAP1 SWAP3 ADD SLOAD SWAP1 SWAP2 SWAP1 PUSH1 0xFF AND DUP4 JUMP JUMPDEST PUSH1 0x40 DUP1 MLOAD SWAP4 DUP5 MSTORE PUSH1 0x20 DUP5 ADD SWAP3 SWAP1 SWAP3 MSTORE ISZERO ISZERO SWAP1 DUP3 ADD MSTORE PUSH1 0x60 ADD PUSH1 0x40 MLOAD DUP1 SWAP2 SUB SWAP1 RETURN JUMPDEST PUSH1 0x1 PUSH1 0x1 PUSH1 0xA0 SHL SUB DUP3 AND PUSH1 0x0 DUP2 DUP2 MSTORE PUSH1 0x20 DUP2 SWAP1 MSTORE PUSH1 0x40 SWAP1 DUP2 SWAP1 KECCAK256 PUSH1 0x2 ADD DUP1 SLOAD PUSH1 0xFF NOT AND PUSH1 0x1 OR SWAP1 SSTORE MLOAD PUSH32 0xE506416A2FD05E60ABC01E433F8473BA8E867F34929614E109C00160E85ABBEE SWAP1 PUSH2 0x117 SWAP1 DUP5 SWAP1 PUSH2 0x2CE JUMP JUMPDEST PUSH1 0x40 MLOAD DUP1 SWAP2 SUB SWAP1 LOG2 POP POP JUMP JUMPDEST PUSH1 0x1 PUSH1 0x1 PUSH1 0xA0 SHL SUB DUP3 AND PUSH1 0x0 SWAP1 DUP2 MSTORE PUSH1 0x20 DUP2 SWAP1 MSTORE PUSH1 0x40 DUP2 KECCAK256 PUSH1 0x1 DUP2 ADD DUP4 SWAP1 SSTORE DUP1 SLOAD SWAP2 PUSH2 0x14E DUP4 PUSH2 0x31C JUMP JUMPDEST SWAP2 SWAP1 POP SSTORE POP DUP2 PUSH1 0x1 PUSH1 0x1 PUSH1 0xA0 SHL SUB AND PUSH32 0x8314CB7AC26BB65CF78222C798A5E4BDF6508AAFD937CEB1860D74BB740F78FD DUP3 PUSH1 0x40 MLOAD PUSH2 0x117 SWAP2 DUP2 MSTORE PUSH1 0x20 ADD SWAP1 JUMP JUMPDEST DUP1 CALLDATALOAD PUSH1 0x1 PUSH1 0x1 PUSH1 0xA0 SHL SUB DUP2 AND DUP2 EQ PUSH2 0x1A5 JUMPI PUSH1 0x0 DUP1 REVERT JUMPDEST SWAP2 SWAP1 POP JUMP JUMPDEST PUSH4 0x4E487B71 PUSH1 0xE0 SHL PUSH1 0x0 MSTORE PUSH1 0x41 PUSH1 0x4 MSTORE PUSH1 0x24 PUSH1 0x0 REVERT JUMPDEST PUSH1 0x0 DUP1 PUSH1 0x40 DUP4 DUP6 SUB SLT ISZERO PUSH2 0x1D3 JUMPI PUSH1 0x0 DUP1 REVERT JUMPDEST PUSH2 0x1DC DUP4 PUSH2 0x18E JUMP JUMPDEST SWAP2 POP PUSH1 0x20 DUP4 ADD CALLDATALOAD PUSH8 0xFFFFFFFFFFFFFFFF DUP1 DUP3 GT ISZERO PUSH2 0x1F9 JUMPI PUSH1 0x0 DUP1 REVERT JUMPDEST DUP2 DUP6 ADD SWAP2 POP DUP6 PUSH1 0x1F DUP4 ADD SLT PUSH2 0x20D JUMPI PUSH1 0x0 DUP1 REVERT JUMPDEST DUP2 CALLDATALOAD DUP2 DUP2 GT ISZERO PUSH2 0x21F JUMPI PUSH2 0x21F PUSH2 0x1AA JUMP JUMPDEST PUSH1 0x40 MLOAD PUSH1 0x1F DUP3 ADD PUSH1 0x1F NOT SWAP1 DUP2 AND PUSH1 0x3F ADD AND DUP2 ADD SWAP1 DUP4 DUP3 GT DUP2 DUP4 LT OR ISZERO PUSH2 0x247 JUMPI PUSH2 0x247 PUSH2 0x1AA JUMP JUMPDEST DUP2 PUSH1 0x40 MSTORE DUP3 DUP2 MSTORE DUP9 PUSH1 0x20 DUP5 DUP8 ADD ADD GT ISZERO PUSH2 0x260 JUMPI PUSH1 0x0 DUP1 REVERT JUMPDEST DUP3 PUSH1 0x20 DUP7 ADD PUSH1 0x20 DUP4 ADD CALLDATACOPY PUSH1 0x0 PUSH1 0x20 DUP5 DUP4 ADD ADD MSTORE DUP1 SWAP6 POP POP POP POP POP POP SWAP3 POP SWAP3 SWAP1 POP JUMP JUMPDEST PUSH1 0x0 DUP1 PUSH1 0x40 DUP4 DUP6 SUB SLT ISZERO PUSH2 0x295 JUMPI PUSH1 0x0 DUP1 REVERT JUMPDEST PUSH2 0x29E DUP4 PUSH2 0x18E JUMP JUMPDEST SWAP5 PUSH1 0x20 SWAP4 SWAP1 SWAP4 ADD CALLDATALOAD SWAP4 POP POP POP JUMP JUMPDEST PUSH1 0x0 PUSH1 0x20 DUP3 DUP5 SUB SLT ISZERO PUSH2 0x2BE JUMPI PUSH1 0x0 DUP1 REVERT JUMPDEST PUSH2 0x2C7 DUP3 PUSH2 0x18E JUMP JUMPDEST SWAP4 SWAP3 POP POP POP JUMP JUMPDEST PUSH1 0x0 PUSH1 0x20 DUP1 DUP4 MSTORE DUP4 MLOAD DUP1 DUP3 DUP6 ADD MSTORE PUSH1 0x0 JUMPDEST DUP2 DUP2 LT ISZERO PUSH2 0x2FB JUMPI DUP6 DUP2 ADD DUP4 ADD MLOAD DUP6 DUP3 ADD PUSH1 0x40 ADD MSTORE DUP3 ADD PUSH2 0x2DF JUMP JUMPDEST POP PUSH1 0x0 PUSH1 0x40 DUP3 DUP7 ADD ADD MSTORE PUSH1 0x40 PUSH1 0x1F NOT PUSH1 0x1F DUP4 ADD AND DUP6 ADD ADD SWAP3 POP POP POP SWAP3 SWAP2 POP POP JUMP JUMPDEST PUSH1 0x0 PUSH1 0x1 DUP3 ADD PUSH2 0x33C JUMPI PUSH4 0x4E487B71 PUSH1 0xE0 SHL PUSH1 0x0 MSTORE PUSH1 0x11 PUSH1 0x4 MSTORE PUSH1 0x24 PUSH1 0x0 REVERT JUMPDEST POP PUSH1 0x1 ADD SWAP1 JUMP INVALID LOG2 PUSH5 0x6970667358 0x22 SLT KECCAK256 JUMPDEST 0x5C 0xD5 SHR SLOAD PUSH7 0x5B1E0B9359BA2F 0xB6 PUSH9 0x9257A9CF41F1D1D37D 0xEB PUSH22 0xBC49A863394C64736F6C634300081400330000000000 "},"methodIdentifiers":{"droneCompliance(address)":"fee12d29","recordViolation(address,string)":"5fc11ad1","updateSafetyScore(address,uint256)":"cd3562c0"}}}}}