{"contracts/DroneFlightAuthorization.sol":{"DroneFlightAuthorization":{"abi":[{"anonymous":false,"inputs":[{"indexed":true,"internalType":"uint256","name":"planId","type":"uint256"}],"name":"FlightPlanApproved","type":"event"},{"anonymous":false,"inputs":[{"indexed":true,"internalType":"uint256","name":"planId","type":"uint256"},{"indexed":false,"internalType":"string","name":"reason","type":"string"}],"name":"FlightPlanRejected","type":"event"},{"anonymous":false,"inputs":[{"indexed":true,"internalType":"uint256","name":"planId","type":"uint256"},{"indexed":false,"internalType":"address","name":"drone","type":"address"}],"name":"FlightPlanSubmitted","type":"event"},{"inputs":[{"internalType":"uint256","name":"_planId","type":"uint256"}],"name":"approveFlightPlan","outputs":[],"stateMutability":"nonpayable","type":"function"},{"inputs":[],"name":"flightPlanCounter","outputs":[{"internalType":"uint256","name":"","type":"uint256"}],"stateMutability":"view","type":"function"},{"inputs":[{"internalType":"uint256","name":"","type":"uint256"}],"name":"flightPlans","outputs":[{"internalType":"address","name":"drone","type":"address"},{"internalType":"uint256","name":"startTime","type":"uint256"},{"internalType":"uint256","name":"endTime","type":"uint256"},{"internalType":"string","name":"startLocation","type":"string"},{"internalType":"string","name":"endLocation","type":"string"},{"internalType":"bool","name":"approved","type":"bool"}],"stateMutability":"view","type":"function"},{"inputs":[{"internalType":"uint256","name":"_startTime","type":"uint256"},{"internalType":"uint256","name":"_endTime","type":"uint256"},{"internalType":"string","name":"_startLocation","type":"string"},{"internalType":"string","name":"_endLocation","type":"string"}],"name":"submitFlightPlan","outputs":[{"internalType":"uint256","name":"","type":"uint256"}],"stateMutability":"nonpayable","type":"function"}],"evm":{"bytecode":{"linkReferences":{},"object":"608060405234801561001057600080fd5b50610777806100206000396000f3fe608060405234801561001057600080fd5b506004361061004c5760003560e01c8063446b36ec146100515780635b66cab61461006d578063bbf4458614610082578063be32fbe4146100a7575b600080fd5b61005a60015481565b6040519081526020015b60405180910390f35b61008061007b366004610403565b6100ba565b005b610095610090366004610403565b610160565b60405161006496959493929190610462565b61005a6100b536600461055a565b6102b4565b6000818152602081905260409020600581015460ff16156101225760405162461bcd60e51b815260206004820152601c60248201527f466c6967687420706c616e20616c726561647920617070726f7665640000000060448201526064015b60405180910390fd5b60058101805460ff1916600117905560405182907fc5cd2f227726b0e5e67c09dada008be4c96a9959ff3e555ba724370cc0df3ad890600090a25050565b60006020819052908152604090208054600182015460028301546003840180546001600160a01b0390941694929391929161019a906105d1565b80601f01602080910402602001604051908101604052809291908181526020018280546101c6906105d1565b80156102135780601f106101e857610100808354040283529160200191610213565b820191906000526020600020905b8154815290600101906020018083116101f657829003601f168201915b505050505090806004018054610228906105d1565b80601f0160208091040260200160405190810160405280929190818152602001828054610254906105d1565b80156102a15780601f10610276576101008083540402835291602001916102a1565b820191906000526020600020905b81548152906001019060200180831161028457829003601f168201915b5050506005909301549192505060ff1686565b60008385106102fb5760405162461bcd60e51b8152602060048201526013602482015272496e76616c696420666c696768742074696d6560681b6044820152606401610119565b6001805490600061030b8361060b565b90915550506040805160c08101825233815260208082018881528284018881526060840188815260808501889052600060a086018190526001805482529481905295909520845181546001600160a01b0319166001600160a01b0390911617815591519282019290925590516002820155915190919060038201906103909082610681565b50608082015160048201906103a59082610681565b5060a091909101516005909101805460ff19169115159190911790556001546040513381527f03709ebfcca5880f8a0a52f6bd33d2f23f5308d21d64a0290e79762bb3861fb29060200160405180910390a250600154949350505050565b60006020828403121561041557600080fd5b5035919050565b6000815180845260005b8181101561044257602081850181015186830182015201610426565b506000602082860101526020601f19601f83011685010191505092915050565b60018060a01b038716815285602082015284604082015260c06060820152600061048f60c083018661041c565b82810360808401526104a1818661041c565b91505082151560a0830152979650505050505050565b634e487b7160e01b600052604160045260246000fd5b600082601f8301126104de57600080fd5b813567ffffffffffffffff808211156104f9576104f96104b7565b604051601f8301601f19908116603f01168101908282118183101715610521576105216104b7565b8160405283815286602085880101111561053a57600080fd5b836020870160208301376000602085830101528094505050505092915050565b6000806000806080858703121561057057600080fd5b8435935060208501359250604085013567ffffffffffffffff8082111561059657600080fd5b6105a2888389016104cd565b935060608701359150808211156105b857600080fd5b506105c5878288016104cd565b91505092959194509250565b600181811c908216806105e557607f821691505b60208210810361060557634e487b7160e01b600052602260045260246000fd5b50919050565b60006001820161062b57634e487b7160e01b600052601160045260246000fd5b5060010190565b601f82111561067c57600081815260208120601f850160051c810160208610156106595750805b601f850160051c820191505b8181101561067857828155600101610665565b5050505b505050565b815167ffffffffffffffff81111561069b5761069b6104b7565b6106af816106a984546105d1565b84610632565b602080601f8311600181146106e457600084156106cc5750858301515b600019600386901b1c1916600185901b178555610678565b600085815260208120601f198616915b82811015610713578886015182559484019460019091019084016106f4565b50858210156107315787850151600019600388901b60f8161c191681555b5050505050600190811b0190555056fea2646970667358221220dcf99e6a39de0d8d4bafe73ed20fa2ec8a94be0561b2eefd45059ff31f502bde64736f6c63430008140033","opcodes":"PUSH1 0x80 PUSH1 0x40 MSTORE CALLVALUE DUP1 ISZERO PUSH2 0x10 JUMPI PUSH1 0x0 DUP1 REVERT JUMPDEST POP PUSH2 0x777 DUP1 PUSH2 0x20 PUSH1 0x0 CODECOPY PUSH1 0x0 RETURN INVALID PUSH1 0x80 PUSH1 0x40 MSTORE CALLVALUE DUP1 ISZERO PUSH2 0x10 JUMPI PUSH1 0x0 DUP1 REVERT JUMPDEST POP PUSH1 0x4 CALLDATASIZE LT PUSH2 0x4C JUMPI PUSH1 0x0 CALLDATALOAD PUSH1 0xE0 SHR DUP1 PUSH4 0x446B36EC EQ PUSH2 0x51 JUMPI DUP1 PUSH4 0x5B66CAB6 EQ PUSH2 0x6D JUMPI DUP1 PUSH4 0xBBF44586 EQ PUSH2 0x82 JUMPI DUP1 PUSH4 0xBE32FBE4 EQ PUSH2 0xA7 JUMPI JUMPDEST PUSH1 0x0 DUP1 REVERT JUMPDEST PUSH2 0x5A PUSH1 0x1 SLOAD DUP2 JUMP JUMPDEST PUSH1 0x40 MLOAD SWAP1 DUP2 MSTORE PUSH1 0x20 ADD JUMPDEST PUSH1 0x40 MLOAD DUP1 SWAP2 SUB SWAP1 RETURN JUMPDEST PUSH2 0x80 PUSH2 0x7B CALLDATASIZE PUSH1 0x4 PUSH2 0x403 JUMP JUMPDEST PUSH2 0xBA JUMP JUMPDEST STOP JUMPDEST PUSH2 0x95 PUSH2 0x90 CALLDATASIZE PUSH1 0x4 PUSH2 0x403 JUMP JUMPDEST PUSH2 0x160 JUMP JUMPDEST PUSH1 0x40 MLOAD PUSH2 0x64 SWAP7 SWAP6 SWAP5 SWAP4 SWAP3 SWAP2 SWAP1 PUSH2 0x462 JUMP JUMPDEST PUSH2 0x5A PUSH2 0xB5 CALLDATASIZE PUSH1 0x4 PUSH2 0x55A JUMP JUMPDEST PUSH2 0x2B4 JUMP JUMPDEST PUSH1 0x0 DUP2 DUP2 MSTORE PUSH1 0x20 DUP2 SWAP1 MSTORE PUSH1 0x40 SWAP1 KECCAK256 PUSH1 0x5 DUP2 ADD SLOAD PUSH1 0xFF AND ISZERO PUSH2 0x122 JUMPI PUSH1 0x40 MLOAD PUSH3 0x461BCD PUSH1 0xE5 SHL DUP2 MSTORE PUSH1 0x20 PUSH1 0x4 DUP3 ADD MSTORE PUSH1 0x1C PUSH1 0x24 DUP3 ADD MSTORE PUSH32 0x466C6967687420706C616E20616C726561647920617070726F76656400000000 PUSH1 0x44 DUP3 ADD MSTORE PUSH1 0x64 ADD JUMPDEST PUSH1 0x40 MLOAD DUP1 SWAP2 SUB SWAP1 REVERT JUMPDEST PUSH1 0x5 DUP2 ADD DUP1 SLOAD PUSH1 0xFF NOT AND PUSH1 0x1 OR SWAP1 SSTORE PUSH1 0x40 MLOAD DUP3 SWAP1 PUSH32 0xC5CD2F227726B0E5E67C09DADA008BE4C96A9959FF3E555BA724370CC0DF3AD8 SWAP1 PUSH1 0x0 SWAP1 LOG2 POP POP JUMP JUMPDEST PUSH1 0x0 PUSH1 0x20 DUP2 SWAP1 MSTORE SWAP1 DUP2 MSTORE PUSH1 0x40 SWAP1 KECCAK256 DUP1 SLOAD PUSH1 0x1 DUP3 ADD SLOAD PUSH1 0x2 DUP4 ADD SLOAD PUSH1 0x3 DUP5 ADD DUP1 SLOAD PUSH1 0x1 PUSH1 0x1 PUSH1 0xA0 SHL SUB SWAP1 SWAP5 AND SWAP5 SWAP3 SWAP4 SWAP2 SWAP3 SWAP2 PUSH2 0x19A SWAP1 PUSH2 0x5D1 JUMP JUMPDEST DUP1 PUSH1 0x1F ADD PUSH1 0x20 DUP1 SWAP2 DIV MUL PUSH1 0x20 ADD PUSH1 0x40 MLOAD SWAP1 DUP2 ADD PUSH1 0x40 MSTORE DUP1 SWAP3 SWAP2 SWAP1 DUP2 DUP2 MSTORE PUSH1 0x20 ADD DUP3 DUP1 SLOAD PUSH2 0x1C6 SWAP1 PUSH2 0x5D1 JUMP JUMPDEST DUP1 ISZERO PUSH2 0x213 JUMPI DUP1 PUSH1 0x1F LT PUSH2 0x1E8 JUMPI PUSH2 0x100 DUP1 DUP4 SLOAD DIV MUL DUP4 MSTORE SWAP2 PUSH1 0x20 ADD SWAP2 PUSH2 0x213 JUMP JUMPDEST DUP3 ADD SWAP2 SWAP1 PUSH1 0x0 MSTORE PUSH1 0x20 PUSH1 0x0 KECCAK256 SWAP1 JUMPDEST DUP2 SLOAD DUP2 MSTORE SWAP1 PUSH1 0x1 ADD SWAP1 PUSH1 0x20 ADD DUP1 DUP4 GT PUSH2 0x1F6 JUMPI DUP3 SWAP1 SUB PUSH1 0x1F AND DUP3 ADD SWAP2 JUMPDEST POP POP POP POP POP SWAP1 DUP1 PUSH1 0x4 ADD DUP1 SLOAD PUSH2 0x228 SWAP1 PUSH2 0x5D1 JUMP JUMPDEST DUP1 PUSH1 0x1F ADD PUSH1 0x20 DUP1 SWAP2 DIV MUL PUSH1 0x20 ADD PUSH1 0x40 MLOAD SWAP1 DUP2 ADD PUSH1 0x40 MSTORE DUP1 SWAP3 SWAP2 SWAP1 DUP2 DUP2 MSTORE PUSH1 0x20 ADD DUP3 DUP1 SLOAD PUSH2 0x254 SWAP1 PUSH2 0x5D1 JUMP JUMPDEST DUP1 ISZERO PUSH2 0x2A1 JUMPI DUP1 PUSH1 0x1F LT PUSH2 0x276 JUMPI PUSH2 0x100 DUP1 DUP4 SLOAD DIV MUL DUP4 MSTORE SWAP2 PUSH1 0x20 ADD SWAP2 PUSH2 0x2A1 JUMP JUMPDEST DUP3 ADD SWAP2 SWAP1 PUSH1 0x0 MSTORE PUSH1 0x20 PUSH1 0x0 KECCAK256 SWAP1 JUMPDEST DUP2 SLOAD DUP2 MSTORE SWAP1 PUSH1 0x1 ADD SWAP1 PUSH1 0x20 ADD DUP1 DUP4 GT PUSH2 0x284 JUMPI DUP3 SWAP1 SUB PUSH1 0x1F AND DUP3 ADD SWAP2 JUMPDEST POP POP POP PUSH1 0x5 SWAP1 SWAP4 ADD SLOAD SWAP2 SWAP3 POP POP PUSH1 0xFF AND DUP7 JUMP JUMPDEST PUSH1 0x0 DUP4 DUP6 LT PUSH2 0x2FB JUMPI PUSH1 0x40 MLOAD PUSH3 0x461BCD PUSH1 0xE5 SHL DUP2 MSTORE PUSH1 0x20 PUSH1 0x4 DUP3 ADD MSTORE PUSH1 0x13 PUSH1 0x24 DUP3 ADD MSTORE PUSH19 0x496E76616C696420666C696768742074696D65 PUSH1 0x68 SHL PUSH1 0x44 DUP3 ADD MSTORE PUSH1 0x64 ADD PUSH2 0x119 JUMP JUMPDEST PUSH1 0x1 DUP1 SLOAD SWAP1 PUSH1 0x0 PUSH2 0x30B DUP4 PUSH2 0x60B JUMP JUMPDEST SWAP1 SWAP2 SSTORE POP POP PUSH1 0x40 DUP1 MLOAD PUSH1 0xC0 DUP2 ADD DUP3 MSTORE CALLER DUP2 MSTORE PUSH1 0x20 DUP1 DUP3 ADD DUP9 DUP2 MSTORE DUP3 DUP5 ADD DUP9 DUP2 MSTORE PUSH1 0x60 DUP5 ADD DUP9 DUP2 MSTORE PUSH1 0x80 DUP6 ADD DUP9 SWAP1 MSTORE PUSH1 0x0 PUSH1 0xA0 DUP7 ADD DUP2 SWAP1 MSTORE PUSH1 0x1 DUP1 SLOAD DUP3 MSTORE SWAP5 DUP2 SWAP1 MSTORE SWAP6 SWAP1 SWAP6 KECCAK256 DUP5 MLOAD DUP2 SLOAD PUSH1 0x1 PUSH1 0x1 PUSH1 0xA0 SHL SUB NOT AND PUSH1 0x1 PUSH1 0x1 PUSH1 0xA0 SHL SUB SWAP1 SWAP2 AND OR DUP2 SSTORE SWAP2 MLOAD SWAP3 DUP3 ADD SWAP3 SWAP1 SWAP3 SSTORE SWAP1 MLOAD PUSH1 0x2 DUP3 ADD SSTORE SWAP2 MLOAD SWAP1 SWAP2 SWAP1 PUSH1 0x3 DUP3 ADD SWAP1 PUSH2 0x390 SWAP1 DUP3 PUSH2 0x681 JUMP JUMPDEST POP PUSH1 0x80 DUP3 ADD MLOAD PUSH1 0x4 DUP3 ADD SWAP1 PUSH2 0x3A5 SWAP1 DUP3 PUSH2 0x681 JUMP JUMPDEST POP PUSH1 0xA0 SWAP2 SWAP1 SWAP2 ADD MLOAD PUSH1 0x5 SWAP1 SWAP2 ADD DUP1 SLOAD PUSH1 0xFF NOT AND SWAP2 ISZERO ISZERO SWAP2 SWAP1 SWAP2 OR SWAP1 SSTORE PUSH1 0x1 SLOAD PUSH1 0x40 MLOAD CALLER DUP2 MSTORE PUSH32 0x3709EBFCCA5880F8A0A52F6BD33D2F23F5308D21D64A0290E79762BB3861FB2 SWAP1 PUSH1 0x20 ADD PUSH1 0x40 MLOAD DUP1 SWAP2 SUB SWAP1 LOG2 POP PUSH1 0x1 SLOAD SWAP5 SWAP4 POP POP POP POP JUMP JUMPDEST PUSH1 0x0 PUSH1 0x20 DUP3 DUP5 SUB SLT ISZERO PUSH2 0x415 JUMPI PUSH1 0x0 DUP1 REVERT JUMPDEST POP CALLDATALOAD SWAP2 SWAP1 POP JUMP JUMPDEST PUSH1 0x0 DUP2 MLOAD DUP1 DUP5 MSTORE PUSH1 0x0 JUMPDEST DUP2 DUP2 LT ISZERO PUSH2 0x442 JUMPI PUSH1 0x20 DUP2 DUP6 ADD DUP2 ADD MLOAD DUP7 DUP4 ADD DUP3 ADD MSTORE ADD PUSH2 0x426 JUMP JUMPDEST POP PUSH1 0x0 PUSH1 0x20 DUP3 DUP7 ADD ADD MSTORE PUSH1 0x20 PUSH1 0x1F NOT PUSH1 0x1F DUP4 ADD AND DUP6 ADD ADD SWAP2 POP POP SWAP3 SWAP2 POP POP JUMP JUMPDEST PUSH1 0x1 DUP1 PUSH1 0xA0 SHL SUB DUP8 AND DUP2 MSTORE DUP6 PUSH1 0x20 DUP3 ADD MSTORE DUP5 PUSH1 0x40 DUP3 ADD MSTORE PUSH1 0xC0 PUSH1 0x60 DUP3 ADD MSTORE PUSH1 0x0 PUSH2 0x48F PUSH1 0xC0 DUP4 ADD DUP7 PUSH2 0x41C JUMP JUMPDEST DUP3 DUP2 SUB PUSH1 0x80 DUP5 ADD MSTORE PUSH2 0x4A1 DUP2 DUP7 PUSH2 0x41C JUMP JUMPDEST SWAP2 POP POP DUP3 ISZERO ISZERO PUSH1 0xA0 DUP4 ADD MSTORE SWAP8 SWAP7 POP POP POP POP POP POP POP JUMP JUMPDEST PUSH4 0x4E487B71 PUSH1 0xE0 SHL PUSH1 0x0 MSTORE PUSH1 0x41 PUSH1 0x4 MSTORE PUSH1 0x24 PUSH1 0x0 REVERT JUMPDEST PUSH1 0x0 DUP3 PUSH1 0x1F DUP4 ADD SLT PUSH2 0x4DE JUMPI PUSH1 0x0 DUP1 REVERT JUMPDEST DUP2 CALLDATALOAD PUSH8 0xFFFFFFFFFFFFFFFF DUP1 DUP3 GT ISZERO PUSH2 0x4F9 JUMPI PUSH2 0x4F9 PUSH2 0x4B7 JUMP JUMPDEST PUSH1 0x40 MLOAD PUSH1 0x1F DUP4 ADD PUSH1 0x1F NOT SWAP1 DUP2 AND PUSH1 0x3F ADD AND DUP2 ADD SWAP1 DUP3 DUP3 GT DUP2 DUP4 LT OR ISZERO PUSH2 0x521 JUMPI PUSH2 0x521 PUSH2 0x4B7 JUMP JUMPDEST DUP2 PUSH1 0x40 MSTORE DUP4 DUP2 MSTORE DUP7 PUSH1 0x20 DUP6 DUP9 ADD ADD GT ISZERO PUSH2 0x53A JUMPI PUSH1 0x0 DUP1 REVERT JUMPDEST DUP4 PUSH1 0x20 DUP8 ADD PUSH1 0x20 DUP4 ADD CALLDATACOPY PUSH1 0x0 PUSH1 0x20 DUP6 DUP4 ADD ADD MSTORE DUP1 SWAP5 POP POP POP POP POP SWAP3 SWAP2 POP POP JUMP JUMPDEST PUSH1 0x0 DUP1 PUSH1 0x0 DUP1 PUSH1 0x80 DUP6 DUP8 SUB SLT ISZERO PUSH2 0x570 JUMPI PUSH1 0x0 DUP1 REVERT JUMPDEST DUP5 CALLDATALOAD SWAP4 POP PUSH1 0x20 DUP6 ADD CALLDATALOAD SWAP3 POP PUSH1 0x40 DUP6 ADD CALLDATALOAD PUSH8 0xFFFFFFFFFFFFFFFF DUP1 DUP3 GT ISZERO PUSH2 0x596 JUMPI PUSH1 0x0 DUP1 REVERT JUMPDEST PUSH2 0x5A2 DUP9 DUP4 DUP10 ADD PUSH2 0x4CD JUMP JUMPDEST SWAP4 POP PUSH1 0x60 DUP8 ADD CALLDATALOAD SWAP2 POP DUP1 DUP3 GT ISZERO PUSH2 0x5B8 JUMPI PUSH1 0x0 DUP1 REVERT JUMPDEST POP PUSH2 0x5C5 DUP8 DUP3 DUP9 ADD PUSH2 0x4CD JUMP JUMPDEST SWAP2 POP POP SWAP3 SWAP6 SWAP2 SWAP5 POP SWAP3 POP JUMP JUMPDEST PUSH1 0x1 DUP2 DUP2 SHR SWAP1 DUP3 AND DUP1 PUSH2 0x5E5 JUMPI PUSH1 0x7F DUP3 AND SWAP2 POP JUMPDEST PUSH1 0x20 DUP3 LT DUP2 SUB PUSH2 0x605 JUMPI PUSH4 0x4E487B71 PUSH1 0xE0 SHL PUSH1 0x0 MSTORE PUSH1 0x22 PUSH1 0x4 MSTORE PUSH1 0x24 PUSH1 0x0 REVERT JUMPDEST POP SWAP2 SWAP1 POP JUMP JUMPDEST PUSH1 0x0 PUSH1 0x1 DUP3 ADD PUSH2 0x62B JUMPI PUSH4 0x4E487B71 PUSH1 0xE0 SHL PUSH1 0x0 MSTORE PUSH1 0x11 PUSH1 0x4 MSTORE PUSH1 0x24 PUSH1 0x0 REVERT JUMPDEST POP PUSH1 0x1 ADD SWAP1 JUMP JUMPDEST PUSH1 0x1F DUP3 GT ISZERO PUSH2 0x67C JUMPI PUSH1 0x0 DUP2 DUP2 MSTORE PUSH1 0x20 DUP2 KECCAK256 PUSH1 0x1F DUP6 ADD PUSH1 0x5 SHR DUP2 ADD PUSH1 0x20 DUP7 LT ISZERO PUSH2 0x659 JUMPI POP DUP1 JUMPDEST PUSH1 0x1F DUP6 ADD PUSH1 0x5 SHR DUP3 ADD SWAP2 POP JUMPDEST DUP2 DUP2 LT ISZERO PUSH2 0x678 JUMPI DUP3 DUP2 SSTORE PUSH1 0x1 ADD PUSH2 0x665 JUMP JUMPDEST POP POP POP JUMPDEST POP POP POP JUMP JUMPDEST DUP2 MLOAD PUSH8 0xFFFFFFFFFFFFFFFF DUP2 GT ISZERO PUSH2 0x69B JUMPI PUSH2 0x69B PUSH2 0x4B7 JUMP JUMPDEST PUSH2 0x6AF DUP2 PUSH2 0x6A9 DUP5 SLOAD PUSH2 0x5D1 JUMP JUMPDEST DUP5 PUSH2 0x632 JUMP JUMPDEST PUSH1 0x20 DUP1 PUSH1 0x1F DUP4 GT PUSH1 0x1 DUP2 EQ PUSH2 0x6E4 JUMPI PUSH1 0x0 DUP5 ISZERO PUSH2 0x6CC JUMPI POP DUP6 DUP4 ADD MLOAD JUMPDEST PUSH1 0x0 NOT PUSH1 0x3 DUP7 SWAP1 SHL SHR NOT AND PUSH1 0x1 DUP6 SWAP1 SHL OR DUP6 SSTORE PUSH2 0x678 JUMP JUMPDEST PUSH1 0x0 DUP6 DUP2 MSTORE PUSH1 0x20 DUP2 KECCAK256 PUSH1 0x1F NOT DUP7 AND SWAP2 JUMPDEST DUP3 DUP2 LT ISZERO PUSH2 0x713 JUMPI DUP9 DUP7 ADD MLOAD DUP3 SSTORE SWAP5 DUP5 ADD SWAP5 PUSH1 0x1 SWAP1 SWAP2 ADD SWAP1 DUP5 ADD PUSH2 0x6F4 JUMP JUMPDEST POP DUP6 DUP3 LT ISZERO PUSH2 0x731 JUMPI DUP8 DUP6 ADD MLOAD PUSH1 0x0 NOT PUSH1 0x3 DUP9 SWAP1 SHL PUSH1 0xF8 AND SHR NOT AND DUP2 SSTORE JUMPDEST POP POP POP POP POP PUSH1 0x1 SWAP1 DUP2 SHL ADD SWAP1 SSTORE POP JUMP INVALID LOG2 PUSH5 0x6970667358 0x22 SLT KECCAK256 0xDC 0xF9 SWAP15 PUSH11 0x39DE0D8D4BAFE73ED20FA2 0xEC DUP11 SWAP5 0xBE SDIV PUSH2 0xB2EE REVERT GASLIMIT SDIV SWAP16 RETURN 0x1F POP 0x2B 0xDE PUSH5 0x736F6C6343 STOP ADDMOD EQ STOP CALLER "},"methodIdentifiers":{"approveFlightPlan(uint256)":"5b66cab6","flightPlanCounter()":"446b36ec","flightPlans(uint256)":"bbf44586","submitFlightPlan(uint256,uint256,string,string)":"be32fbe4"}}}}}