{
  "_format": "hh-sol-artifact-1",
  "contractName": "DroneFlightAuthorization",
  "sourceName": "contracts/DroneFlightAuthorization.sol",
  "abi": [
    {
      "anonymous": false,
      "inputs": [
        {
          "indexed": true,
          "internalType": "uint256",
          "name": "planId",
          "type": "uint256"
        }
      ],
      "name": "FlightPlanApproved",
      "type": "event"
    },
    {
      "anonymous": false,
      "inputs": [
        {
          "indexed": true,
          "internalType": "uint256",
          "name": "planId",
          "type": "uint256"
        },
        {
          "indexed": false,
          "internalType": "string",
          "name": "reason",
          "type": "string"
        }
      ],
      "name": "FlightPlanRejected",
      "type": "event"
    },
    {
      "anonymous": false,
      "inputs": [
        {
          "indexed": true,
          "internalType": "uint256",
          "name": "planId",
          "type": "uint256"
        },
        {
          "indexed": false,
          "internalType": "address",
          "name": "drone",
          "type": "address"
        }
      ],
      "name": "FlightPlanSubmitted",
      "type": "event"
    },
    {
      "inputs": [
        {
          "internalType": "uint256",
          "name": "_planId",
          "type": "uint256"
        }
      ],
      "name": "approveFlightPlan",
      "outputs": [],
      "stateMutability": "nonpayable",
      "type": "function"
    },
    {
      "inputs": [],
      "name": "flightPlanCounter",
      "outputs": [
        {
          "internalType": "uint256",
          "name": "",
          "type": "uint256"
        }
      ],
      "stateMutability": "view",
      "type": "function"
    },
    {
      "inputs": [
        {
          "internalType": "uint256",
          "name": "",
          "type": "uint256"
        }
      ],
      "name": "flightPlans",
      "outputs": [
        {
          "internalType": "address",
          "name": "drone",
          "type": "address"
        },
        {
          "internalType": "uint256",
          "name": "startTime",
          "type": "uint256"
        },
        {
          "internalType": "uint256",
          "name": "endTime",
          "type": "uint256"
        },
        {
          "internalType": "string",
          "name": "startLocation",
          "type": "string"
        },
        {
          "internalType": "string",
          "name": "endLocation",
          "type": "string"
        },
        {
          "internalType": "bool",
          "name": "approved",
          "type": "bool"
        }
      ],
      "stateMutability": "view",
      "type": "function"
    },
    {
      "inputs": [
        {
          "internalType": "uint256",
          "name": "_startTime",
          "type": "uint256"
        },
        {
          "internalType": "uint256",
          "name": "_endTime",
          "type": "uint256"
        },
        {
          "internalType": "string",
          "name": "_startLocation",
          "type": "string"
        },
        {
          "internalType": "string",
          "name": "_endLocation",
          "type": "string"
        }
      ],
      "name": "submitFlightPlan",
      "outputs": [
        {
          "internalType": "uint256",
          "name": "",
          "type": "uint256"
        }
      ],
      "stateMutability": "nonpayable",
      "type": "function"
    }
  ],
  "bytecode": "0x608060405234801561001057600080fd5b50610777806100206000396000f3fe608060405234801561001057600080fd5b506004361061004c5760003560e01c8063446b36ec146100515780635b66cab61461006d578063bbf4458614610082578063be32fbe4146100a7575b600080fd5b61005a60015481565b6040519081526020015b60405180910390f35b61008061007b366004610403565b6100ba565b005b610095610090366004610403565b610160565b60405161006496959493929190610462565b61005a6100b536600461055a565b6102b4565b6000818152602081905260409020600581015460ff16156101225760405162461bcd60e51b815260206004820152601c60248201527f466c6967687420706c616e20616c726561647920617070726f7665640000000060448201526064015b60405180910390fd5b60058101805460ff1916600117905560405182907fc5cd2f227726b0e5e67c09dada008be4c96a9959ff3e555ba724370cc0df3ad890600090a25050565b60006020819052908152604090208054600182015460028301546003840180546001600160a01b0390941694929391929161019a906105d1565b80601f01602080910402602001604051908101604052809291908181526020018280546101c6906105d1565b80156102135780601f106101e857610100808354040283529160200191610213565b820191906000526020600020905b8154815290600101906020018083116101f657829003601f168201915b505050505090806004018054610228906105d1565b80601f0160208091040260200160405190810160405280929190818152602001828054610254906105d1565b80156102a15780601f10610276576101008083540402835291602001916102a1565b820191906000526020600020905b81548152906001019060200180831161028457829003601f168201915b5050506005909301549192505060ff1686565b60008385106102fb5760405162461bcd60e51b8152602060048201526013602482015272496e76616c696420666c696768742074696d6560681b6044820152606401610119565b6001805490600061030b8361060b565b90915550506040805160c08101825233815260208082018881528284018881526060840188815260808501889052600060a086018190526001805482529481905295909520845181546001600160a01b0319166001600160a01b0390911617815591519282019290925590516002820155915190919060038201906103909082610681565b50608082015160048201906103a59082610681565b5060a091909101516005909101805460ff19169115159190911790556001546040513381527f03709ebfcca5880f8a0a52f6bd33d2f23f5308d21d64a0290e79762bb3861fb29060200160405180910390a250600154949350505050565b60006020828403121561041557600080fd5b5035919050565b6000815180845260005b8181101561044257602081850181015186830182015201610426565b506000602082860101526020601f19601f83011685010191505092915050565b60018060a01b038716815285602082015284604082015260c06060820152600061048f60c083018661041c565b82810360808401526104a1818661041c565b91505082151560a0830152979650505050505050565b634e487b7160e01b600052604160045260246000fd5b600082601f8301126104de57600080fd5b813567ffffffffffffffff808211156104f9576104f96104b7565b604051601f8301601f19908116603f01168101908282118183101715610521576105216104b7565b8160405283815286602085880101111561053a57600080fd5b836020870160208301376000602085830101528094505050505092915050565b6000806000806080858703121561057057600080fd5b8435935060208501359250604085013567ffffffffffffffff8082111561059657600080fd5b6105a2888389016104cd565b935060608701359150808211156105b857600080fd5b506105c5878288016104cd565b91505092959194509250565b600181811c908216806105e557607f821691505b60208210810361060557634e487b7160e01b600052602260045260246000fd5b50919050565b60006001820161062b57634e487b7160e01b600052601160045260246000fd5b5060010190565b601f82111561067c57600081815260208120601f850160051c810160208610156106595750805b601f850160051c820191505b8181101561067857828155600101610665565b5050505b505050565b815167ffffffffffffffff81111561069b5761069b6104b7565b6106af816106a984546105d1565b84610632565b602080601f8311600181146106e457600084156106cc5750858301515b600019600386901b1c1916600185901b178555610678565b600085815260208120601f198616915b82811015610713578886015182559484019460019091019084016106f4565b50858210156107315787850151600019600388901b60f8161c191681555b5050505050600190811b0190555056fea2646970667358221220dcf99e6a39de0d8d4bafe73ed20fa2ec8a94be0561b2eefd45059ff31f502bde64736f6c63430008140033",
  "linkReferences": {},
  "deployedLinkReferences": {}
}