{
  "_format": "hh-sol-artifact-1",
  "contractName": "DroneOperationsManager",
  "sourceName": "contracts/DroneOperationsManager.sol",
  "abi": [
    {
      "inputs": [
        {
          "internalType": "address",
          "name": "_registryAddress",
          "type": "address"
        },
        {
          "internalType": "address",
          "name": "_flightAuthAddress",
          "type": "address"
        },
        {
          "internalType": "address",
          "name": "_complianceAddress",
          "type": "address"
        }
      ],
      "stateMutability": "nonpayable",
      "type": "constructor"
    },
    {
      "inputs": [],
      "name": "complianceSystem",
      "outputs": [
        {
          "internalType": "contract DroneComplianceSystem",
          "name": "",
          "type": "address"
        }
      ],
      "stateMutability": "view",
      "type": "function"
    },
    {
      "inputs": [
        {
          "internalType": "uint256",
          "name": "_flightPlanId",
          "type": "uint256"
        },
        {
          "internalType": "uint256",
          "name": "_safetyScore",
          "type": "uint256"
        }
      ],
      "name": "conductDroneOperation",
      "outputs": [],
      "stateMutability": "nonpayable",
      "type": "function"
    },
    {
      "inputs": [],
      "name": "droneRegistry",
      "outputs": [
        {
          "internalType": "contract DroneRegistry",
          "name": "",
          "type": "address"
        }
      ],
      "stateMutability": "view",
      "type": "function"
    },
    {
      "inputs": [],
      "name": "flightAuthorization",
      "outputs": [
        {
          "internalType": "contract DroneFlightAuthorization",
          "name": "",
          "type": "address"
        }
      ],
      "stateMutability": "view",
      "type": "function"
    }
  ],
  "bytecode": "0x608060405234801561001057600080fd5b5060405161049838038061049883398101604081905261002f9161008d565b600080546001600160a01b039485166001600160a01b0319918216179091556001805493851693821693909317909255600280549190931691161790556100d0565b80516001600160a01b038116811461008857600080fd5b919050565b6000806000606084860312156100a257600080fd5b6100ab84610071565b92506100b960208501610071565b91506100c760408501610071565b90509250925092565b6103b9806100df6000396000f3fe608060405234801561001057600080fd5b506004361061004b5760003560e01c80622066de146100505780630168e6051461007f5780630b2089af146100925780634eedbad4146100a7575b600080fd5b600254610063906001600160a01b031681565b6040516001600160a01b03909116815260200160405180910390f35b600054610063906001600160a01b031681565b6100a56100a03660046101f5565b6100ba565b005b600154610063906001600160a01b031681565b600154604051635dfa22c360e11b81526004810184905260009182916001600160a01b039091169063bbf4458690602401600060405180830381865afa158015610108573d6000803e3d6000fd5b505050506040513d6000823e601f3d908101601f1916820160405261013091908101906102d3565b9550505050509150806101895760405162461bcd60e51b815260206004820152601860248201527f466c6967687420706c616e206e6f7420617070726f7665640000000000000000604482015260640160405180910390fd5b600254604051630334d58b60e61b81526001600160a01b038481166004830152602482018690529091169063cd3562c090604401600060405180830381600087803b1580156101d757600080fd5b505af11580156101eb573d6000803e3d6000fd5b5050505050505050565b6000806040838503121561020857600080fd5b50508035926020909101359150565b634e487b7160e01b600052604160045260246000fd5b600082601f83011261023e57600080fd5b815167ffffffffffffffff8082111561025957610259610217565b604051601f8301601f19908116603f0116810190828211818310171561028157610281610217565b8160405283815260209250868385880101111561029d57600080fd5b600091505b838210156102bf57858201830151818301840152908201906102a2565b600093810190920192909252949350505050565b60008060008060008060c087890312156102ec57600080fd5b86516001600160a01b038116811461030357600080fd5b809650506020870151945060408701519350606087015167ffffffffffffffff8082111561033057600080fd5b61033c8a838b0161022d565b9450608089015191508082111561035257600080fd5b5061035f89828a0161022d565b92505060a0870151801515811461037557600080fd5b80915050929550929550929556fea2646970667358221220a1b1d20e4a7a42f816571fe4f3ab393809ebebb5aa2af438dfe3ecc3b55f53e164736f6c63430008140033",
  "linkReferences": {},
  "deployedLinkReferences": {}
}