{
  "_format": "hh-sol-artifact-1",
  "contractName": "DroneRegistry",
  "sourceName": "contracts/DroneRegistry.sol",
  "abi": [
    {
      "anonymous": false,
      "inputs": [
        {
          "indexed": true,
          "internalType": "address",
          "name": "owner",
          "type": "address"
        },
        {
          "indexed": false,
          "internalType": "string",
          "name": "serialNumber",
          "type": "string"
        }
      ],
      "name": "DroneRegistered",
      "type": "event"
    },
    {
      "anonymous": false,
      "inputs": [
        {
          "indexed": true,
          "internalType": "address",
          "name": "drone",
          "type": "address"
        },
        {
          "indexed": false,
          "internalType": "enum DroneRegistry.DroneStatus",
          "name": "newStatus",
          "type": "uint8"
        }
      ],
      "name": "DroneStatusUpdated",
      "type": "event"
    },
    {
      "inputs": [
        {
          "internalType": "address",
          "name": "",
          "type": "address"
        }
      ],
      "name": "drones",
      "outputs": [
        {
          "internalType": "address",
          "name": "owner",
          "type": "address"
        },
        {
          "internalType": "string",
          "name": "serialNumber",
          "type": "string"
        },
        {
          "internalType": "string",
          "name": "model",
          "type": "string"
        },
        {
          "internalType": "bool",
          "name": "isRegistered",
          "type": "bool"
        },
        {
          "internalType": "uint256",
          "name": "registrationTimestamp",
          "type": "uint256"
        },
        {
          "internalType": "enum DroneRegistry.DroneStatus",
          "name": "status",
          "type": "uint8"
        }
      ],
      "stateMutability": "view",
      "type": "function"
    },
    {
      "inputs": [
        {
          "internalType": "string",
          "name": "_serialNumber",
          "type": "string"
        },
        {
          "internalType": "string",
          "name": "_model",
          "type": "string"
        }
      ],
      "name": "registerDrone",
      "outputs": [],
      "stateMutability": "nonpayable",
      "type": "function"
    },
    {
      "inputs": [
        {
          "internalType": "string",
          "name": "",
          "type": "string"
        }
      ],
      "name": "serialNumberExists",
      "outputs": [
        {
          "internalType": "bool",
          "name": "",
          "type": "bool"
        }
      ],
      "stateMutability": "view",
      "type": "function"
    },
    {
      "inputs": [
        {
          "internalType": "address",
          "name": "_drone",
          "type": "address"
        },
        {
          "internalType": "enum DroneRegistry.DroneStatus",
          "name": "_newStatus",
          "type": "uint8"
        }
      ],
      "name": "updateDroneStatus",
      "outputs": [],
      "stateMutability": "nonpayable",
      "type": "function"
    }
  ],
  "bytecode": "0x608060405234801561001057600080fd5b50610939806100206000396000f3fe608060405234801561001057600080fd5b506004361061004c5760003560e01c8063598f8371146100515780639d5d669614610094578063ec35cc90146100b9578063fa770b8e146100ce575b600080fd5b61007f61005f366004610576565b805160208183018101805160018252928201919093012091525460ff1681565b60405190151581526020015b60405180910390f35b6100a76100a23660046105cf565b6100e1565b60405161008b96959493929190610679565b6100cc6100c73660046106d8565b610237565b005b6100cc6100dc36600461073c565b6103fb565b600060208190529081526040902080546001820180546001600160a01b03909216929161010d90610777565b80601f016020809104026020016040519081016040528092919081815260200182805461013990610777565b80156101865780601f1061015b57610100808354040283529160200191610186565b820191906000526020600020905b81548152906001019060200180831161016957829003601f168201915b50505050509080600201805461019b90610777565b80601f01602080910402602001604051908101604052809291908181526020018280546101c790610777565b80156102145780601f106101e957610100808354040283529160200191610214565b820191906000526020600020905b8154815290600101906020018083116101f757829003601f168201915b5050505060038301546004840154600590940154929360ff918216939092501686565b60018260405161024791906107b1565b9081526040519081900360200190205460ff16156102bb5760405162461bcd60e51b815260206004820152602660248201527f44726f6e652073657269616c206e756d62657220616c726561647920726567696044820152651cdd195c995960d21b60648201526084015b60405180910390fd5b6040805160c0810182523381526020810184905290810182905260016060820181905242608083015260a082015233600090815260208181526040909120825181546001600160a01b0319166001600160a01b03909116178155908201516001820190610328908261081c565b506040820151600282019061033d908261081c565b5060608201516003808301805492151560ff199384161790556080840151600484015560a084015160058401805491939092911690600190849081111561038657610386610641565b02179055509050506001808360405161039f91906107b1565b908152604051908190036020018120805492151560ff199093169290921790915533907f30e59256cf75f3868eb92186b439f011cc5ea4471a1a907054d2e0468407a61b906103ef9085906108dc565b60405180910390a25050565b6001600160a01b03821660009081526020819052604090206003015460ff1661045d5760405162461bcd60e51b8152602060048201526014602482015273111c9bdb99481b9bdd081c9959da5cdd195c995960621b60448201526064016102b2565b6001600160a01b0382166000908152602081905260409020600501805482919060ff1916600183600381111561049557610495610641565b0217905550816001600160a01b03167f1e056dd8dddf6985e9b79217968259d197ecbd900da1f2aa2769050a504dee46826040516103ef91906108ef565b634e487b7160e01b600052604160045260246000fd5b600082601f8301126104fa57600080fd5b813567ffffffffffffffff80821115610515576105156104d3565b604051601f8301601f19908116603f0116810190828211818310171561053d5761053d6104d3565b8160405283815286602085880101111561055657600080fd5b836020870160208301376000602085830101528094505050505092915050565b60006020828403121561058857600080fd5b813567ffffffffffffffff81111561059f57600080fd5b6105ab848285016104e9565b949350505050565b80356001600160a01b03811681146105ca57600080fd5b919050565b6000602082840312156105e157600080fd5b6105ea826105b3565b9392505050565b60005b8381101561060c5781810151838201526020016105f4565b50506000910152565b6000815180845261062d8160208601602086016105f1565b601f01601f19169290920160200192915050565b634e487b7160e01b600052602160045260246000fd5b6004811061067557634e487b7160e01b600052602160045260246000fd5b9052565b6001600160a01b038716815260c06020820181905260009061069d90830188610615565b82810360408401526106af8188610615565b91505084151560608301528360808301526106cd60a0830184610657565b979650505050505050565b600080604083850312156106eb57600080fd5b823567ffffffffffffffff8082111561070357600080fd5b61070f868387016104e9565b9350602085013591508082111561072557600080fd5b50610732858286016104e9565b9150509250929050565b6000806040838503121561074f57600080fd5b610758836105b3565b915060208301356004811061076c57600080fd5b809150509250929050565b600181811c9082168061078b57607f821691505b6020821081036107ab57634e487b7160e01b600052602260045260246000fd5b50919050565b600082516107c38184602087016105f1565b9190910192915050565b601f82111561081757600081815260208120601f850160051c810160208610156107f45750805b601f850160051c820191505b8181101561081357828155600101610800565b5050505b505050565b815167ffffffffffffffff811115610836576108366104d3565b61084a816108448454610777565b846107cd565b602080601f83116001811461087f57600084156108675750858301515b600019600386901b1c1916600185901b178555610813565b600085815260208120601f198616915b828110156108ae5788860151825594840194600190910190840161088f565b50858210156108cc5787850151600019600388901b60f8161c191681555b5050505050600190811b01905550565b6020815260006105ea6020830184610615565b602081016108fd8284610657565b9291505056fea26469706673582212204b5b15a9e641f476f0f77489ac46abcf44fc6589154b8f7975fe2235311e870a64736f6c63430008140033",
  "linkReferences": {},
  "deployedLinkReferences": {}
}